:020000040800F2
:100000001004002001010008930A0008290A0008D2
:10001000910A00086D010008490B0008000000006B
:10002000000000000000000000000000B70A000807
:100030006F01000800000000B50A0008B90A0008B6
:100040001B0100081B0100081B0100081B01000820
:100050001B0100081B010008710100088D01000848
:10006000A90100081B0100081B0100081B01000872
:100070001B0100081B0100081B0100081B010008F0
:100080001B0100081B0100081B0100081B010008E0
:100090001B0100081B0100081B0100081B010008D0
:1000A0001B0100081B0100081B0100081B010008C0
:1000B0001B0100081B010008000000001B010008D4
:1000C0001B01000800000000000000001B010008E8
:1000D000000000001B0100081B01000800000000D8
:1000E0001B0100081B0100081B010008DFF80CD0F1
:1000F00000F02AF800480047690B000810040020AF
:100100000648804706480047FEE7FEE7FEE7FEE7B1
:10011000FEE7FEE7FEE7FEE7FEE7FEE7010B00086D
:10012000ED000008D2B201E000F8012B491EFBD21D
:1001300070470022F6E710B513460A4604461946F2
:10014000FFF7F0FF204610BD064C074D06E0E068C3
:1001500040F0010394E8070098471034AC42F6D30E
:10016000FFF7C8FF880B0008A80B0008FEE77047E0
:1001700010B500220221044800F03EF9BDE810400D
:10018000012000F04FB80000000C014010B5012222
:100190000221044800F030F9BDE81040022000F0D0
:1001A00041B80000000C014010B5002202210448B3
:1001B00000F022F9BDE81040042000F033B8000040
:1001C000000C0140124808B5816941F004018161C9
:1001D000816940F6880201F0040100910D490A602E
:1001E0000D490A6842F006020A60CA6842F0060237
:1001F000CA60816941F001018161806900F00100FC
:1002000000900648016841F4C071016008BD00001B
:1002100000100240000801400004014000E100E03D
:1002200070470000044910B50A68024202D0086015
:10023000FFF7F6FF10BD0000140401402DE9F84F50
:10024000DFF894A100220AF1040B14464FF0010CD0
:100250004FF00F090BF1040E0B680CFA04F52B405C
:10026000AB4271D15D4E4F68A7EB0608B7422BD069
:100270000DDC032F34D005DC37B3012F19D0022F4A
:100280002FD11BE0112F16D0122F2AD119E0B8F56B
:10029000881F19D006DCB8F5803F15D0B8F5801F4F
:1002A0001FD111E0B8F5001F0ED0B8F5041F18D10A
:1002B0000AE0CA6815E0CA68121D12E0CA6808326E
:1002C0000FE0CA680C320CE08A682AB1012A4FF0AC
:1002D000080203D0456104E0042202E0056100E069
:1002E0000022FF2B01D8074601E000F104074FEA86
:1002F000840601D9A6F120063D6809FA06F825EA28
:10030000080502FA06F645EA06053D604D68ED006F
:100310005CD5334DAE6946F00106AE61AD6924F09F
:10032000030605F0010500952E4D7719BD68A60757
:10033000360F09FA06F825EA0805DFF8AC804045D3
:1003400003D14FF0000810E040E0DFF8A080404506
:1003500002D14FF0010808E0DFF89480404502D157
:100360004FF0020801E04FF0030808FA06F848EAE7
:100370000508C7F808804D68ED0305D5DAF8005088
:100380001D43CAF8005004E0DAF800609E43CAF842
:1003900000604D68DBF80060AD035D4601D51E438B
:1003A00000E09E432E604D68DEF80060ED02754669
:1003B00001D51E4300E09E432E604D68AD020D4DF9
:1003C0002E6801D51E4300E09E432E60641C102C55
:1003D000FFF442AFBDE8F88F0004014000001110A7
:1003E000001002400000014000080140000C0140E4
:1003F000001001400C0401400AB10161704709047A
:10040000FBE7000001488068704700000000002002
:100410000248816802781144816070470000002022
:10042000074810B5016841F010010160032000F099
:1004300067F8002000F006F800F024F8002010BD56
:100440000020024070B50D4D04464FF47A712878B3
:10045000B1FBF0F00A490968B1FBF0F000F0D0FA06
:1004600048B9102C07D200222146501E00F028F86F
:1004700000206C6070BD012070BD000000000020F5
:100480000C0000200C4808B5816941F00101816130
:10049000816901F001010091C16941F08051C161A0
:1004A000C06900F0805000900448416821F0E0618C
:1004B00041F08061416008BD001002400000014031
:1004C000F0B40E4B1B680C46C3F30223C3F10705BF
:1004D000042D00D90425191D072901D2002300E0AD
:1004E000DB1E012606FA05F1491E214099409E4077
:1004F000761E16403143F0BC00F0CCBA0CED00E0A3
:10050000064900F0070208684FF6FF03184040EA6A
:100510000220034A10430860704700000CED00E021
:100520000000FA052DE9F047DFF8548105460E4634
:10053000D8F8000000F00700B0420CD2D8F8001044
:1005400021F007013143C8F80010D8F8000000F08E
:100550000700B0426FD128684A4C810712D5400786
:1005600003D5606840F4E06060602878000703D538
:10057000606840F4605060606068A96820F0F00036
:10058000084360602878C00744D06868012816D006
:100590002168022816D0890700294CDA616821F009
:1005A000030101436160FFF72DFF6968074641F2CF
:1005B000883001290ED00229814618D026E0216812
:1005C0008903E9E78901E7E7FFF71CFFC11B4945FC
:1005D00001D918E081466068C0F381000128F3D199
:1005E00018E000BFFFF70EFFC11B49450BD860683C
:1005F000C0F381000228F5D10CE000BFFFF702FF35
:10060000C11B494502D90320BDE8F087606810F09E
:100610000C0FF3D1D8F80010404601F00701B142A9
:100620000BD9016821F0070131430160006800F037
:100630000700B04201D00120E6E72878400705D541
:100640006068E96820F4E06008436060287800078B
:1006500006D56068296920F4605040EAC1006060F6
:1006600000F016F86168084AC1F30311515CC840F4
:10067000064908600020FFF7E5FE0020C4E70000FF
:100680000020024000100240760B00080C00002001
:1006900012A185B00FC98DE80F0014A0144A00689C
:1006A00004905168134801F00C03042B10D0082B60
:1006B0000ED1C1F38343C9031DF803000AD5516865
:1006C00004AAC1F34041515C0A4A5043B0FBF1F027
:1006D00005B0704708494843FAE7000002030405E3
:1006E000060708090A0B0C0D0E0F1010010200007E
:1006F0000010024000127A0000093D002DE9F84F79
:1007000004460078B94DC00748D06868C0F381003E
:10071000012807D06868C0F38100022809D1686801
:10072000C00306D52868800338D5606800286FD0DC
:1007300034E06068B0F5803F0BD010B1B0F5A02F69
:1007400011D0286820F480302860286820F48020A8
:1007500002E0286840F480302860606888B1FFF7C4
:1007600051FE064609E0286840F480202860F0E742
:10077000FFF748FE801B642875D828688003F7D5EA
:100780000CE0FFF73FFE064605E000BFFFF73AFE2C
:10079000801B6428F0D828688003F7D42078944E12
:1007A00080074FF001094FF000083BD5686810F052
:1007B0000C0F07D06868C0F38100022809D168686F
:1007C000C00306D42868800714D5206901281FD1EA
:1007D00010E02069B0B1C6F80090FFF713FE07469D
:1007E00005E000BFFFF70EFEC01B0228C4D8286832
:1007F0008007F7D52868616920F0F80040EAC10059
:1008000028600FE0C6F80080FFF7FCFD074606E011
:10081000E9E000BFFFF7F6FDC01B022823D82868D7
:100820008007F7D4207800072CD57248A169D9B188
:10083000C0F80090FFF7E6FD074604E0FFF7E2FD91
:10084000C01B02280FD8686A8007F7D56A484FF4A2
:10085000FA510068B0FBF1F0009000BF0098411E13
:100860000091FAD20EE080E0C0F80080FFF7CAFDE8
:10087000074604E0FFF7C6FDC01B022875D8686A6A
:100880008007F7D42078400760D5E8690027C000CA
:1008900008D4E86940F08050E861E869012700F079
:1008A0008050009055480168C90513D401688346FB
:1008B00041F480710160FFF7A5FD824606E000BFAC
:1008C000FFF7A0FDA0EB0A0064284ED8DBF800007B
:1008D000C005F5D5E06801280AD008B1052813D075
:1008E000286A20F001002862286A20F0040002E053
:1008F000286A40F001002862E06841F2883B98B124
:10090000FFF780FD82460BE0286A40F00400286271
:10091000EEE700BFFFF776FDA0EB0A0159455AD874
:10092000286A8007F6D50CE0FFF76CFD824605E0EB
:10093000FFF768FDA0EB0A0159454CD8286A8007EB
:10094000F6D41FB1E86920F08050E861E06988B30F
:100950006968C1F38101022945D00228C6F8608088
:1009600004D0FFF74FFD044638E034E0FFF74AFDBE
:10097000074604E0FFF746FDC01B02282BD8286875
:100980008001F7D4206AB0F5803F05D16868A1687E
:1009900020F4003008436860D4E90801084369681E
:1009A00021F4741108436860C6F86090FFF72AFDCF
:1009B000044606E015E000BFFFF724FD001B0228F7
:1009C00009D828688001F7D50BE000BFFFF71AFDB2
:1009D000001B022802D90320BDE8F88F2868800197
:1009E000F4D40020F8E70120F6E7000000100240F0
:1009F00000004242800442420C000020007000408F
:100A000010B5401EB0F1807F01D3012010BD4FF022
:100A1000E02460610F21601700F03CF80020A06125
:100A200007202061002010BDFEE7000030B585B032
:100A3000002415480094019402940394816941F0C4
:100A400004018161816901F004010491816941F02F
:100A50000801816180690D4D00F0080004900022BA
:100A600003212846FFF7C8FC032000900120CDE9B0
:100A700001040220039069462846FFF7DFFBFFF7D9
:100A8000A1FB05B030BD000000100240000C014089
:100A9000FEE770470907090E002806DA00F00F008C
:100AA00000F1E02080F8141D704700F1E02080F88C
:100AB0000014704770477047FFF7AABC10B590B09C
:100AC00028216846FFF735FB14210AA8FFF731FB00
:100AD000022000900120049010200024059007942B
:100AE0006846FFF70BFE0F20CDE90A040C940D9425
:100AF00000210AA80E94FFF715FD10B010BD0000EC
:100B00000D48016841F00101016041680B4A114044
:100B1000416001680A4A11400160016821F48021A6
:100B20000160416821F4FE0141604FF41F018160C2
:100B30000449C00308607047001002400000FFF83D
:100B4000FFFFF6FE08ED00E0FEE702E008C8121F16
:100B500008C1002AFAD170477047002001E001C1A6
:100B6000121F002AFBD17047FFF75AFCFFF7A6FFC0
:100B7000FFF75CFFFEE7000000000000000001023C
:100B80000304060708090000A80B00080000002065
:100B9000100000004A0B0008B80B000810000020ED
:100BA000000400005A0B00080100000010000000C3
:080BB0000000000000A24A044D
:04000005080000ED02
:00000001FF
